:10041000054B0648033310B51B1A062B03D9044BB2
:10042000002B00D0984710BD3CF4FF1F3CF4FF1F89
:10043000000000000648074910B5091A8910CB0FC3
:100440005918491003D0044B002B00D0984710BD19
:100450003CF4FF1F3CF4FF1F0000000010B5074CE8
:100460002378002B09D1FFF7D3FF054B002B02D0D7
:10047000044800E000BF0123237010BD3CF4FF1FBF
:100480000000000050090000094B10B5002B03D0FC
:100490000849094800E000BF08480368002B02D162
:1004A000FFF7C8FF10BD064B002BF9D09847F7E7C0
:1004B0000000000040F4FF1F5009000038F4FF1F47
:1004C00000000000144B002B00D1124B9D4640222F
:1004D00092029A1A924600218B460F461148124A00
:1004E000121A00F0F5F80D4B002B00D098470C4B7A
:1004F000002B00D098470020002104000D000B487D
:1005000000F090F800F0C0F82000290000F010F88A
:1005100000F090F80000080000300020000000000B
:10052000000000003CF4FF1F64F4FF1F55060000AC
:1005300080B500AF0A4B0A21180000F063F8084BA1
:100540000022AA21180000F00DF8054B0122FF211E
:10055000180000F007F800231800BD4680BDC04613
:1005600058F4FF1F80B584B000AFF860B960FB1D80
:100570001A70FA68BB68D318FA1D12781A70C04650
:10058000BD4604B080BDC04680B582B000AF786083
:10059000396039687B6800221800FFF7E3FFC04626
:1005A000BD4602B080BDC04680B582B000AF786065
:1005B00039607A683B68D3181B781800BD4602B0D2
:1005C00080BDC04680B586B000AFF8607A600B236E
:1005D000FB180A1C1A7000237B610AE00B23FB182E
:1005E0001A787969FB681800FFF7BCFF7B69013353
:1005F0007B617A697B689A42F0D3C046BD4606B0FB
:1006000080BDC04680B582B000AF786039603A687E
:100610007B6800211800FFF7D5FFC046BD4602B039
:1006200080BDC04610B5010000230022002000F06C
:1006300095F810BD10B50021040000F0F9F8044B46
:100640001868C36B002B00D09847200000F06EF9AB
:100650004809000070B5094B094CE41AA41009D0F0
:10066000084AA518AD00ED182B68013C9847043DD9
:10067000002CF9D100F074F970BDC0467C0900006F
:1006800080090000FFFFFF3F70B50D4E0D4D0024A7
:10069000AD1BAD1005D0A300F35801349847A54217
:1006A000F9D100F057F9084E084D0024AD1BAD10EC
:1006B00005D0A300F35801349847A542F9D170BD85
:1006C0007409000074090000740900007C0900002E
:1006D00070B583073FD0541E002A3BD0CEB2030032
:1006E000032503E0621E002C34D0140001335A1E8F
:1006F00016702B42F6D1032C24D9FF250D402A0277
:1007000015432A0415430F2C11D92600103E360933
:10071000013636011A009B19156055609560D56049
:1007200010329342F8D10F221440032C0AD9261F0D
:10073000B6080136B6001A009B1920C29342FCD1BC
:1007400003221440002C05D0C9B21C1919700133C2
:100750009C42FBD170BD14000300CCE7F8B54446C1
:100760005F4656464D469B462F4BF0B41C68A4236B
:100770005B000500E0580E00904600284BD043680F
:100780001F2B0DDC5C1C002D21D102339B0044602B
:100790001E5000203CBC90469946A246AB46F8BD90
:1007A000224B002B3CD0C820400000E000BF0028B6
:1007B00036D0A42200235200A15843600160A0500B
:1007C00040328350043283500124002DDDD09A0042
:1007D00091468144424688214F467A50C4225200B5
:1007E0009046804442468739994012688A460A43B7
:1007F0009446424661461160842249465F46520053
:100800008F50022DC1D1020055468D32FF32116842
:100810000D431560B9E720004D30FF30E050AEE7E2
:1008200001204042B6E7C046480900000000000031
:10083000F0B55F4656464D464446F0B40F00394B7E
:1008400085B01B68019002934933FF330393A422C0
:10085000029B52009E58002E4ED0039B9946C42303
:100860005B00984604339A467468B044A500751935
:10087000B244013C08D52DE06B1DFF331B689F423D
:1008800004D0043D013C25D3002FF5D173686A687C
:10089000013BA34239D000236B60002AF1D073687A
:1008A00041469B460123A340096819422BD051467B
:1008B000096819422BD12B0084331968019890479D
:1008C00073685B45C3D14B461B68B342BFD1043D3F
:1008D000013CD9D2144B002B0ED07368002B1BD1D6
:1008E0003368002B1CD04A463000136000E000BF84
:1008F0004B461E68002EB2D105B03CBC90469946CE
:10090000A246AB46F0BD9047DAE77460C5E72B001E
:10091000843318689047D3E73368B1461E00E9E78F
:100920000023FAE74809000000000000FEE7C04687
:10093000034B10B5002B02D00248FFF773FE10BD29
:10094000000000005506000010F0FF1F43000000EB
:1009500000000000F8B5C046F8BC08BC9E467047D1
:0C096000F8B5C046F8BC08BC9E467047C5
:08096C0058FBFF7F01000000B1
:080974003109000089040000B4
:04097C005D04000016
:10098000000000000000000010F0FF1F0000000049
:1009900000000000FCF2FF1F64F3FF1FCCF3FF1FF9
:1009A0000000000000000000000000000000000047
:1009B0000000000000000000000000000000000037
:1009C000000000004C0900000000000000000000D2
:1009D0000000000000000000000000000000000017
:1009E0000000000000000000000000000000000007
:1009F00000000000000000000000000000000000F7
:100A000000000000000000000000000000000000E6
:100A100000000000000000000000000000000000D6
:100A200000000000000000000000000000000000C6
:100A300000000000000000000100000000000000B5
:100A40000E33CDAB34126DE6ECDE05000B0000007A
:100A50000000000000000000000000000000000096
:100A60000000000000000000000000000000000086
:100A70000000000000000000000000000000000076
:100A80000000000000000000000000000000000066
:0400000300000531C3
:00000001FF
